{
  "_format": "hh-sol-artifact-1",
  "contractName": "FileSharing",
  "sourceName": "contracts/FileSharing.sol",
  "abi": [
    {
      "anonymous": false,
      "inputs": [
        {
          "indexed": false,
          "internalType": "uint256",
          "name": "fileId",
          "type": "uint256"
        },
        {
          "indexed": false,
          "internalType": "address",
          "name": "grantee",
          "type": "address"
        }
      ],
      "name": "AccessGranted",
      "type": "event"
    },
    {
      "anonymous": false,
      "inputs": [
        {
          "indexed": false,
          "internalType": "uint256",
          "name": "fileId",
          "type": "uint256"
        },
        {
          "indexed": false,
          "internalType": "address",
          "name": "revokee",
          "type": "address"
        }
      ],
      "name": "AccessRevoked",
      "type": "event"
    },
    {
      "anonymous": false,
      "inputs": [
        {
          "indexed": false,
          "internalType": "uint256",
          "name": "fileId",
          "type": "uint256"
        },
        {
          "indexed": false,
          "internalType": "string",
          "name": "cid",
          "type": "string"
        },
        {
          "indexed": false,
          "internalType": "address",
          "name": "owner",
          "type": "address"
        }
      ],
      "name": "FileAdded",
      "type": "event"
    },
    {
      "inputs": [
        {
          "internalType": "string",
          "name": "cid",
          "type": "string"
        }
      ],
      "name": "addFile",
      "outputs": [],
      "stateMutability": "nonpayable",
      "type": "function"
    },
    {
      "inputs": [],
      "name": "fileCount",
      "outputs": [
        {
          "internalType": "uint256",
          "name": "",
          "type": "uint256"
        }
      ],
      "stateMutability": "view",
      "type": "function"
    },
    {
      "inputs": [
        {
          "internalType": "uint256",
          "name": "",
          "type": "uint256"
        }
      ],
      "name": "files",
      "outputs": [
        {
          "internalType": "string",
          "name": "cid",
          "type": "string"
        },
        {
          "internalType": "address",
          "name": "owner",
          "type": "address"
        }
      ],
      "stateMutability": "view",
      "type": "function"
    },
    {
      "inputs": [
        {
          "internalType": "uint256",
          "name": "fileId",
          "type": "uint256"
        },
        {
          "internalType": "address",
          "name": "grantee",
          "type": "address"
        }
      ],
      "name": "grantAccess",
      "outputs": [],
      "stateMutability": "nonpayable",
      "type": "function"
    },
    {
      "inputs": [
        {
          "internalType": "uint256",
          "name": "fileId",
          "type": "uint256"
        },
        {
          "internalType": "address",
          "name": "user",
          "type": "address"
        }
      ],
      "name": "hasAccess",
      "outputs": [
        {
          "internalType": "bool",
          "name": "",
          "type": "bool"
        }
      ],
      "stateMutability": "view",
      "type": "function"
    },
    {
      "inputs": [
        {
          "internalType": "uint256",
          "name": "fileId",
          "type": "uint256"
        },
        {
          "internalType": "address",
          "name": "revokee",
          "type": "address"
        }
      ],
      "name": "revokeAccess",
      "outputs": [],
      "stateMutability": "nonpayable",
      "type": "function"
    }
  ],
  "bytecode": "0x608060405234801561001057600080fd5b50610e4d806100206000396000f3fe608060405234801561001057600080fd5b50600436106100625760003560e01c8063439535191461006757806365dd152c14610085578063ced14198146100a1578063d9a5ec1b146100d1578063eb9b9b64146100ed578063f4c714b414610109575b600080fd5b61006f61013a565b60405161007c91906105da565b60405180910390f35b61009f600480360381019061009a9190610693565b610140565b005b6100bb60048036038101906100b69190610693565b610280565b6040516100c891906106ee565b60405180910390f35b6100eb60048036038101906100e69190610693565b6102ef565b005b6101076004803603810190610102919061084f565b61042f565b005b610123600480360381019061011e9190610898565b6104f5565b604051610131929190610953565b60405180910390f35b60015481565b600080600084815260200190815260200160002090508060010160009054906101000a900473ffffffffffffffffffffffffffffffffffffffff1673ffffffffffffffffffffffffffffffffffffffff163373ffffffffffffffffffffffffffffffffffffffff16146101e8576040517f08c379a00000000000000000000000000000000000000000000000000000000081526004016101df906109cf565b60405180910390fd5b60018160020160008473ffffffffffffffffffffffffffffffffffffffff1673ffffffffffffffffffffffffffffffffffffffff16815260200190815260200160002060006101000a81548160ff0219169083151502179055507f3c3a9147a1fc73dd51a32f4d10c43d457e8cb826eb6f35cac6349eb965ba82b483836040516102739291906109ef565b60405180910390a1505050565b60008060008085815260200190815260200160002090508060020160008473ffffffffffffffffffffffffffffffffffffffff1673ffffffffffffffffffffffffffffffffffffffff16815260200190815260200160002060009054906101000a900460ff1691505092915050565b600080600084815260200190815260200160002090508060010160009054906101000a900473ffffffffffffffffffffffffffffffffffffffff1673ffffffffffffffffffffffffffffffffffffffff163373ffffffffffffffffffffffffffffffffffffffff1614610397576040517f08c379a000000000000000000000000000000000000000000000000000000000815260040161038e90610a64565b60405180910390fd5b60008160020160008473ffffffffffffffffffffffffffffffffffffffff1673ffffffffffffffffffffffffffffffffffffffff16815260200190815260200160002060006101000a81548160ff0219169083151502179055507f125883b94692baebecad9f111ed97ffa626523bbbadc6b0ef85ee1b56b9e52d583836040516104229291906109ef565b60405180910390a1505050565b6001600081548092919061044290610ab3565b9190505550600080600060015481526020019081526020016000209050818160000190816104709190610d07565b50338160010160006101000a81548173ffffffffffffffffffffffffffffffffffffffff021916908373ffffffffffffffffffffffffffffffffffffffff1602179055507fc1077b5d554a254e3d6761090a6e6c51b63c9cd6293f37c49f47f56f2a8af64160015483336040516104e993929190610dd9565b60405180910390a15050565b600060205280600052604060002060009150905080600001805461051890610b2a565b80601f016020809104026020016040519081016040528092919081815260200182805461054490610b2a565b80156105915780601f1061056657610100808354040283529160200191610591565b820191906000526020600020905b81548152906001019060200180831161057457829003601f168201915b5050505050908060010160009054906101000a900473ffffffffffffffffffffffffffffffffffffffff16905082565b6000819050919050565b6105d4816105c1565b82525050565b60006020820190506105ef60008301846105cb565b92915050565b6000604051905090565b600080fd5b600080fd5b610612816105c1565b811461061d57600080fd5b50565b60008135905061062f81610609565b92915050565b600073ffffffffffffffffffffffffffffffffffffffff82169050919050565b600061066082610635565b9050919050565b61067081610655565b811461067b57600080fd5b50565b60008135905061068d81610667565b92915050565b600080604083850312156106aa576106a96105ff565b5b60006106b885828601610620565b92505060206106c98582860161067e565b9150509250929050565b60008115159050919050565b6106e8816106d3565b82525050565b600060208201905061070360008301846106df565b92915050565b600080fd5b600080fd5b6000601f19601f8301169050919050565b7f4e487b7100000000000000000000000000000000000000000000000000000000600052604160045260246000fd5b61075c82610713565b810181811067ffffffffffffffff8211171561077b5761077a610724565b5b80604052505050565b600061078e6105f5565b905061079a8282610753565b919050565b600067ffffffffffffffff8211156107ba576107b9610724565b5b6107c382610713565b9050602081019050919050565b82818337600083830152505050565b60006107f26107ed8461079f565b610784565b90508281526020810184848401111561080e5761080d61070e565b5b6108198482856107d0565b509392505050565b600082601f83011261083657610835610709565b5b81356108468482602086016107df565b91505092915050565b600060208284031215610865576108646105ff565b5b600082013567ffffffffffffffff81111561088357610882610604565b5b61088f84828501610821565b91505092915050565b6000602082840312156108ae576108ad6105ff565b5b60006108bc84828501610620565b91505092915050565b600081519050919050565b600082825260208201905092915050565b60005b838110156108ff5780820151818401526020810190506108e4565b60008484015250505050565b6000610916826108c5565b61092081856108d0565b93506109308185602086016108e1565b61093981610713565b840191505092915050565b61094d81610655565b82525050565b6000604082019050818103600083015261096d818561090b565b905061097c6020830184610944565b9392505050565b7f4f6e6c7920746865206f776e65722063616e206772616e742061636365737300600082015250565b60006109b9601f836108d0565b91506109c482610983565b602082019050919050565b600060208201905081810360008301526109e8816109ac565b9050919050565b6000604082019050610a0460008301856105cb565b610a116020830184610944565b9392505050565b7f4f6e6c7920746865206f776e65722063616e207265766f6b6520616363657373600082015250565b6000610a4e6020836108d0565b9150610a5982610a18565b602082019050919050565b60006020820190508181036000830152610a7d81610a41565b9050919050565b7f4e487b7100000000000000000000000000000000000000000000000000000000600052601160045260246000fd5b6000610abe826105c1565b91507fffffffffffffffffffffffffffffffffffffffffffffffffffffffffffffffff8203610af057610aef610a84565b5b600182019050919050565b7f4e487b7100000000000000000000000000000000000000000000000000000000600052602260045260246000fd5b60006002820490506001821680610b4257607f821691505b602082108103610b5557610b54610afb565b5b50919050565b60008190508160005260206000209050919050565b60006020601f8301049050919050565b600082821b905092915050565b600060088302610bbd7fffffffffffffffffffffffffffffffffffffffffffffffffffffffffffffffff82610b80565b610bc78683610b80565b95508019841693508086168417925050509392505050565b6000819050919050565b6000610c04610bff610bfa846105c1565b610bdf565b6105c1565b9050919050565b6000819050919050565b610c1e83610be9565b610c32610c2a82610c0b565b848454610b8d565b825550505050565b600090565b610c47610c3a565b610c52818484610c15565b505050565b5b81811015610c7657610c6b600082610c3f565b600181019050610c58565b5050565b601f821115610cbb57610c8c81610b5b565b610c9584610b70565b81016020851015610ca4578190505b610cb8610cb085610b70565b830182610c57565b50505b505050565b600082821c905092915050565b6000610cde60001984600802610cc0565b1980831691505092915050565b6000610cf78383610ccd565b9150826002028217905092915050565b610d10826108c5565b67ffffffffffffffff811115610d2957610d28610724565b5b610d338254610b2a565b610d3e828285610c7a565b600060209050601f831160018114610d715760008415610d5f578287015190505b610d698582610ceb565b865550610dd1565b601f198416610d7f86610b5b565b60005b82811015610da757848901518255600182019150602085019450602081019050610d82565b86831015610dc45784890151610dc0601f891682610ccd565b8355505b6001600288020188555050505b505050505050565b6000606082019050610dee60008301866105cb565b8181036020830152610e00818561090b565b9050610e0f6040830184610944565b94935050505056fea2646970667358221220177298848903f5004c997cf15c4052331fe57dea54f68ab92def3df4b8e10ec264736f6c63430008140033",
  "linkReferences": {},
  "deployedLinkReferences": {}
}